:100000000C9468000C9490000C9490000C94900058
:100010000C9490000C9490000C9490000C94900020
:100020000C9490000C9490000C9490000C94900010
:100030000C9490000C9490000C9490000C94900000
:100040000C94DD100C9490000C94D2130C940414B6
:100050000C9490000C9490000C9490000C949000E0
:100060000C9490000C949000000000080002010025
:100070000003040700000000000000000000000171
:10008000020408102040800102040810200102042C
:100090000810204080400404040404040404020204
:1000A000020202020303030303030202030000002F
:1000B0000023002600290000000000250028002B56
:1000C0000000000000240027002A000090103414D3
:1000D00011241FBECFEFD8E0DEBFCDBF12E0A0E0FD
:1000E000B1E0E0EFFAE202C005900D92A431B10751
:1000F000D9F724E0A4E1B2E001C01D92A933B20710
:10010000E1F710E0C8E6D0E004C02197FE010E94AC
:100110006115C636D107C9F70E94CE140C94761526
:100120000C940000CF92DF92EF92FF920F931F93F7
:10013000E82FF92F05C0015011092109310961F19A
:10014000908196239417B9F305C001501109210934
:10015000310911F1908196239413F7CFC12CD12C42
:10016000E12CF12C0AC08FEFC81AD80AE80AF80A65
:100170000C151D052E053F0579F080818623841717
:1001800091F36C2D7D2D8E2D9F2D1F910F91FF9042
:10019000EF90DF90CF90089560E070E080E090E015
:1001A0001F910F91FF90EF90DF90CF900895DC01A9
:1001B000ED91FC910190F081E02D09940F931F9334
:1001C000CF93DF9308EC12E0C0E0D0E06C2F6170B9
:1001D00084E00E94FB11BE0175956795617083E014
:1001E0000E94FB11BE01759567957595679582E034
:1001F0000E94FB1183E10E947911F8018193919390
:100200008F012196C830D10509F7DF91CF911F9159
:100210000F910895EF92FF920F931F93CF93DF9367
:1002200090912801E0912F018091AE022091AF02C0
:10023000992361F1F0E0EF01CB5CDD4F90912B0150
:100240003CE0939F800D112488834DE0249F900112
:100250001124D901AD5CBE4F1C96EC90F12C00E04E
:1002600010E0C801B7010E94ED14D901A80FB91F11
:10027000AD5CBE4F9C918881890F8A930F5F1F4FA1
:10028000CF01801B910B019661F72AC090912D013F
:10029000BCE09B9F800D112480933502F0E005E3C4
:1002A00012E0C0E0D0E04DE0249F90011124D9017C
:1002B000A15CBE4FEC90F12CD8014D918D01CE0187
:1002C000B7010E94ED14D901A80FB91FAD5CBE4F54
:1002D0008C91480FD8014C932196EC17FD0764F7D9
:1002E000DF91CF911F910F91FF90EF9008951F9391
:1002F000CF93DF931F92CDB7DEB7282F862F142F11
:1003000060E029830E94FB1160E08EE00E94FB11F7
:10031000298141E06FE089E00E945D1261E08EE09A
:100320000E94FB1161E0812F0F90DF91CF911F910F
:100330000C94FB11CF93DF93EC011C161D0664F5A2
:10034000E091C702F0E0E153FE4F42E160E18081BD
:100350000E94770184EF91E00E943311E091C60280
:10036000F0E0E153FE4F41E162E180810E947701BC
:1003700084EF91E00E943311E091C502F0E0E15377
:10038000FE4F40E161E180810E94770184EF91E0BE
:100390000E9433112197D1CFDF91CF9108959C0115
:1003A0008A3091055CF0EAE0F0E0BF010E94ED14B4
:1003B000CB01BF010E94ED14982F01C096E19093EC
:1003C000C602C9016AE070E00E94ED148093C50284
:1003D00008959C01843691055CF064E670E00E940B
:1003E000ED14CB016AE070E00E94ED14982F01C07B
:1003F00096E19093C702C9010C94CF010F931F930C
:10040000CF93C82F0E9427116093C1027093C2023C
:100410008093C3029093C402009130011091310186
:10042000012E000C220B330B060F171F281F391F3C
:100430000093BD021093BE022093BF023093C0020E
:10044000DC01CB01805A9541AF4FBF4F8093B90279
:100450009093BA02A093BB02B093BC02C093B802BF
:10046000CF911F910F9108959B012E5F3F4F281749
:1004700039075CF0625071098617970744F4892F99
:100480008095881F8827881F089581E0089580E05F
:1004900008958091AF0290E001960E94CF01809173
:1004A000AE02865F8093C7020895AF92BF92CF924B
:1004B000DF92EF92FF920F931F93CF93DF93EC01A4
:1004C000CC0FDD1FFE01E853FD4F608171818091EB
:1004D0001401909115016817790709F445C0072E9A
:1004E000000C880B990B1F921F921F922CE02F93E8
:1004F000A12CB12C6501EE24EA9413E0F12E00E06A
:1005000010E020E030E0A9010E948C140F900F90C1
:100510000F900F906C3018F46093AF0203C08BE023
:100520008093AF020E940A01FE01E853FD4F6081F3
:10053000718180911401909115010E9434028823E9
:1005400021F08091B802833048F0C853DD4F888194
:100550009981909315018093140106C082E00E9456
:10056000FE010E944902F1CFDF91CF911F910F91BF
:10057000FF90EF90DF90CF90BF90AF900895AF9233
:10058000BF92CF92DF92EF92FF920F931F93CF9380
:10059000DF93EC01CC0FDD1FFE01E853FD4F6081BE
:1005A000718180911201909113016817790709F404
:1005B00045C0072E000C880B990B1F921F921F92AB
:1005C0002CE02F93A12CB12C6501EE24EA9413E0CA
:1005D000F12E00E010E020E030E0A9010E948C1430
:1005E0000F900F900F900F906C3018F46093AE0244
:1005F00003C08BE08093AE020E940A01FE01E85323
:10060000FD4F6081718180911201909113010E94D0
:100610003402882321F08091B802833048F0C85317
:10062000DD4F88819981909313018093120106C058
:1006300082E00E94FE010E944902F1CFDF91CF913A
:100640001F910F91FF90EF90DF90CF90BF90AF90F0
:1006500008958F929F92AF92BF92CF92DF92EF92C6
:10066000FF920F931F93CF93DF93EB014C01880C04
:10067000991CF401E853FD4F608171818091100154
:1006800090911101CC0FDD1F6817790769F4FE0105
:10069000E853FD4F2081318180910E0190910F012F
:1006A0002817390759F5F8C0072E000C880B990B4D
:1006B0001F921F921F922AE02F93A12CB12C65014B
:1006C000A394EE24EA9413E0F12E00E010E020E081
:1006D00030E0A9010E948C140F900F900F900F90A2
:1006E000693071052CF470932E0160932D0106C0C2
:1006F00088E090E090932E0180932D01FE01E85355
:10070000FD4F6081718180910E0190910F016817FA
:10071000790751F1072E000C880B990B1F921F923D
:100720001F922AE02F93A12CB12C6501A394EE24F3
:10073000EA9413E0F12E00E010E020E030E0A9019F
:100740000E948C140F900F900F900F9069307105DC
:100750002CF470932C0160932B0106C088E090E08C
:1007600090932C0180932B0120912B0130912C012F
:1007700080912D0190912E01A901485F5F4F481B88
:10078000590B50930D0140930C014830510541F431
:1007900040910A0150910B0150930D0140930C01BF
:1007A00040910C0150910D014830510524F441E075
:1007B0004093280105C04830510511F010922801DE
:1007C0008217930754F0582F492F2817390714F42C
:1007D000522F432F9C01852F942F281B390B2F5FFD
:1007E0003F4F30932A0120932901E091AF028DE021
:1007F000E89FF0011124ED5CFE4F8485829F202D3F
:10080000112420932F010E940A01FE01E853FD4F9D
:100810006081718180910E0190910F010E943402DC
:1008200081112BC0F401E853FD4F608171818091EB
:100830001001909111010E943402882321F08091CF
:10084000B8028330D0F0F401E853FD4F80819181EC
:100850009093110180931001C853DD4F88819981D5
:1008600090930F0180930E0180910C0190910D01E6
:1008700090930B0180930A010FC082E00E94FE0159
:1008800080912D018093C70280912B018093C50236
:1008900086E18093C602D7CFDF91CF911F910F9150
:1008A000FF90EF90DF90CF90BF90AF909F908F9090
:1008B000089581E08093A40280E293E09093310157
:1008C0008093300108951092A40280ED97E09093F8
:1008D0003101809330010895AF92BF92CF92DF92A1
:1008E000EF92FF920F931F93CF93DF93EC01CC0F06
:1008F000DD1FFE01E853FD4F608171818091080189
:10090000909109016817790709F462C0072E000C5D
:10091000880B990B1F921F921F9228E02F93A12CF6
:10092000B12C6501A394EE24EA9413E0F12E00E0CB
:1009300010E020E030E0A9010E948C140F900F908D
:100940000F900F90683018F46093AD0203C087E0F9
:100950008093AD02FE01E853FD4F6081718180916B
:100960000801909109010E9434028823B1F083E0CC
:100970000E94FE0186E18093C5028093C6028091A9
:10098000AD028093C7028FEF9FEF90932501809374
:10099000240190932701809326018091AD02863037
:1009A00031F48091A402811102C00E945904809107
:1009B000AD02863029F08091A40281110E94630467
:1009C000C853DD4F88819981909309018093080174
:1009D000DF91CF911F910F91FF90EF90DF90CF901B
:1009E000BF90AF9008956F927F928F929F92AF9237
:1009F000BF92CF92DF92EF92FF920F931F93CF930C
:100A0000DF933B014C01880C991CE401C853DD4F76
:100A1000688179818091330290913402861797071B
:100A200071F1072E000C880B990B1F921F921F92D9
:100A30002FE72F93A12CB12C6501EE24EA9413E04B
:100A4000F12E00E010E020E030E0A9010E948C14BB
:100A50007093230160932201688179818091330230
:100A6000909134020E9434020F900F900F900F90DB
:100A7000882329F08091B802833008F45FC0E30135
:100A8000CC0FDD1FCE0188539D4F3C01FC016081DE
:100A9000718180913102909132028617970771F12E
:100AA000072E000C880B990B1F921F921F922FE7A5
:100AB0002F93A12CB12C6501EE24EA9413E0F12EC2
:100AC00000E010E020E030E0A9010E948C14709357
:100AD000210160932001F3016081718180913102D5
:100AE000909132020E9434020F900F900F900F905D
:100AF000882321F08091B802833050F1F401E8534B
:100B0000FD4F808191819093340280933302C853CA
:100B1000DD4F888199819093320280933102DF9179
:100B2000CF911F910F91FF90EF90DF90CF90BF90EA
:100B3000AF909F908F907F906F90089582E00E9479
:100B4000FE0180912201909123010E94E90197CF3B
:100B500082E00E94FE0180912001909121010E947B
:100B6000E901CCCF6F927F928F929F92AF92BF920A
:100B7000CF92DF92EF92FF920F931F93CF93DF9369
:100B80004C01EB01CC0FDD1FCE0188539D4F3C0182
:100B9000FC016081718180910601909107018617A7
:100BA000970779F1072E000C880B990B1F921F9263
:100BB0001F922FE72F93A12CB12C6501EE24EA940C
:100BC00013E0F12E00E010E020E030E0A9010E94E7
:100BD0008C147093A8026093A702F3016081718165
:100BE00080910601909107010E9434020F900F90AE
:100BF0000F900F90882329F08091B802833008F479
:100C00005EC0880C991CC40188539D4F3C01FC01B7
:100C10006081718180910401909105018617970789
:100C200071F1072E000C880B990B1F921F921F92D7
:100C30002FE72F93A12CB12C6501EE24EA9413E049
:100C4000F12E00E010E020E030E0A9010E948C14B9
:100C50007093A6026093A502F30160817181809177
:100C60000401909105010E9434020F900F900F90A3
:100C70000F90882321F08091B802833050F1C8533F
:100C8000DD4F888199819093070180930601F401DB
:100C9000E853FD4F80819181909305018093040179
:100CA000DF91CF911F910F91FF90EF90DF90CF9048
:100CB000BF90AF909F908F907F906F90089582E04B
:100CC0000E94FE018091A7029091A8020E94E90172
:100CD00098CF82E00E94FE018091A5029091A60229
:100CE0000E94E901CCCF8091AF0290E001960E9472
:100CF000CF018091AE02865F8093C7021092B80246
:100D0000089586E18093C7028093C6028093C5024E
:100D100008950F931F930E9427116093C10270934F
:100D2000C2028093C3029093C4020091B902109151
:100D3000BA022091BB023091BC02061717072807A0
:100D4000390720F41F910F910C9481060091BD0288
:100D50001091BE022091BF023091C0020617170702
:100D60002807390768F40E9473068091A40288233B
:100D700039F08FE28093C7028093C6028093C50248
:100D80001F910F910895AF92BF92CF92DF92EF9291
:100D9000FF920F931F9380911F01882309F452C083
:100DA00061E084E00E94FB1161E083E00E94FB119E
:100DB00061E082E00E94FB1183E10E947911BC0195
:100DC0009093D7028093D60280912F0290913002A7
:100DD00068177907B9F1072E000C880B990B1F9241
:100DE0001F921F9221E12F93A12CB12C6501A39496
:100DF000EE24EA9413E0F12E00E010E020E030E071
:100E0000A9010E948C1460931E018091D6029091DA
:100E1000D7029093300280932F022FE0629FC0018F
:100E200011240E94E9010F900F900F900F9083E022
:100E30001F910F91FF90EF90DF90CF90BF90AF90F8
:100E40000C94FE011F910F91FF90EF90DF90CF90D7
:100E5000BF90AF900895611571058105910581F0EE
:100E60006F3521E07207810591056CF0683B2BE03E
:100E700072078105910554F4462F372F282F0AC099
:100E800040E030E005C04EE531E002C048EB3BE019
:100E900020E090E0642F732F822F0895CF93DF938B
:100EA000C82FD62F60E00E94FB1182E090E00E94E4
:100EB000331161E08C2F0E94FB118AE090E00E94C8
:100EC000331160E08C2F0E94FB1120EA3FE040E0EC
:100ED00050E061E08D2FDF91CF910C942B126115C2
:100EE000710581059105B1F120912E02E22FF0E00C
:100EF000EE0FFF1FEA5DFD4F7183608381E0820F7B
:100F0000843018F480932E0202C010922E02609159
:100F10002602709127028091280290912902680F81
:100F2000791F80912A0290912B02680F791F80917E
:100F30002C0290912D02680F791F77FF02C06D5F20
:100F40007F4F7595679575956795072E000C880BF3
:100F5000990B089560E070E0CB010895611571056B
:100F600081059105B1F120912502E22FF0E0EE0F0D
:100F7000FF1FE35EFD4F7183608381E0820F843049
:100F800018F48093250202C01092250260911D0280
:100F900070911E0280911F0290912002680F791FAC
:100FA0008091210290912202680F791F8091230283
:100FB00090912402680F791F77FF02C06D5F7F4F09
:100FC0007595679575956795072E000C880B990B9D
:100FD000089560E070E0CB0108954F925F926F92A8
:100FE0007F92AF92BF92CF92DF92EF92FF920F93D8
:100FF0001F936091B4027091B5028091B6029091F6
:10100000B7026115710581059105C9F1A090A9028A
:10101000B090AA020B2C000CCC08DD082091AB028A
:101020003091AC022901330F660877087F926F92E6
:101030005F924F9218EBE12E1BE0F12E00E010E0E2
:101040002EE531E040E050E00E948C1460931701DF
:10105000862F90E00E94E9010F900F900F900F9063
:1010600081E01F910F91FF90EF90DF90CF90BF90A4
:10107000AF907F906F905F904F900C94FE011F9106
:101080000F91FF90EF90DF90CF90BF90AF907F9047
:101090006F905F904F900895CF92DF92EF92FF9202
:1010A0000F931F930091B0021091B1022091B202F0
:1010B0003091B3026B017C0146E9C40ED11CE11CE6
:1010C000F11CC016D106E206F30660F06B017C014C
:1010D00046E9C41AD108E108F1080C151D052E05D2
:1010E0003F0540F46093B0027093B1028093B20266
:1010F0009093B3026091B0027091B1028091B202FC
:101100009091B3021F910F91FF90EF90DF90CF90DD
:10111000089568E087E00E944E070E942B070C9418
:101120004C080F931F93CF9303E010E0C4E2C093E9
:10113000C702C093C602C093C5028EE190E00E9430
:101140009A01CF5FCD3299F70E9489086093B0026F
:101150007093B1028093B2029093B30201501109CF
:1011600029F7CF911F910F91089566E085E00E94C5
:101170004E070C942B07AF92BF92CF92DF92EF9263
:10118000FF920F931F9380911F01E8ECF2E02191F1
:1011900031912A3031050CF080E092E0E63DF9070C
:1011A000B1F780931F016091D6027091D702072E8C
:1011B000000C880B990B1F921F921F9221E12F9315
:1011C000A12CB12C6501A394EE24EA9413E0F12E36
:1011D00000E010E020E030E0A9010E948C14609350
:1011E0001E010F900F900F900F901F910F91FF9085
:1011F000EF90DF90CF90BF90AF900895CF92DF92A5
:10120000EF92FF920F93CF93DF9300D0CDB7DEB76D
:101210007C016B010150003108F05EC0603871053F
:101220000CF45AC0613E71056CF5F70184A195A1DB
:10123000DC01ED91FC91602B0190F081E02D2A837F
:1012400049830995F70184A195A1DC01ED91FC91F9
:101250004981642F6F770190F081E02D0995E89422
:10126000C4F82A81B0ECCB16D104B1F1F70184A106
:1012700095A1DC01ED91FC91622F6F770190F081D7
:10128000E02D20C0CB01885F9109089728F56D3FBC
:1012900071053CF46A3F71054CF4683F7105E1F457
:1012A00005C0CB018E5F91090297B0F4D7019496E7
:1012B0008D919C919597DC01ED91FC910190F081CD
:1012C000E02D6C2D0F900F90DF91CF910F91FF903B
:1012D000EF90DF90CF9009940F900F90DF91CF9116
:1012E0000F91FF90EF90DF90CF9008950F93022F12
:1012F000242F462F60EB70E00E94FE080F910895A6
:101300006F927F928F929F92AF92BF92CF92DF9215
:10131000EF92FF920F931F93CF93DF933B01EC016A
:10132000CC0FDD1FCE0188539D4F4C01FC01608125
:10133000718180912401909125016817790709F442
:101340008AC08091AD02813021F0873009F47BC0E2
:101350004BC0072E000C880B990B1F921F921F92F7
:101360002FE72F93A12CB12C6501EE24EA9413E012
:10137000F12E00E010E020E030E0A9010E948C1482
:1013800070931D0160931C01F40160817181809153
:101390002401909125010E9434020F900F900F902C
:1013A0000F90882329F08091B802833008F419C186
:1013B00020911C0130911D01C90187559E4F880F56
:1013C000991F880F991F90931B0180931A0189EA36
:1013D00091E0821B930B880F991F880F991F9093A0
:1013E0001901809318012FC0072E000C880B990B50
:1013F0001F921F921F922FE72F93A12CB12C6501F2
:10140000EE24EA9413E0F12E00E010E020E030E05A
:10141000A9010E948C147093AA026093A902F4019E
:101420006081718180912401909125010E94340294
:101430000F900F900F900F90882329F08091B802A1
:10144000833008F4D8C0C853DD4F888199819093C8
:10145000250180932401E301CC0FDD1FCE018853C9
:101460009D4F4C01FC01608171818091260190911A
:1014700027016817790709F4DCC08091AD0281303B
:1014800021F0873009F446C075C0072E000C880B88
:10149000990B1F921F921F922DE02F93A12CB12C1C
:1014A0006501EE24EA9413E0F12E00E010E020E064
:1014B00030E0A9010E948C140F900F900F900F90B4
:1014C0006D3071052CF47093AC026093AB0206C0D2
:1014D0008CE090E09093AC028093AB02FE01E85365
:1014E000FD4F6081718180912601909127010E94BA
:1014F0003402882329F08091B802833008F485C033
:10150000209116014091AB0264E188ED92E00E94C7
:1015100076095EC08091B802823008F059C0072E6B
:10152000000C880B990B1F921F921F9221E12F93A1
:10153000A12CB12C6501A394EE24EA9413E0F12EC2
:1015400000E010E020E030E0A9010E948C140F9030
:101550000F900F900F90613118F46093160103C043
:1015600080E18093160181E00E94FE0180911601C6
:1015700090E05CC0072E000C880B990B1F921F9205
:101580001F922FE72F93A12CB12C6501EE24EA9432
:1015900013E0F12E00E010E020E030E0A9010E940D
:1015A0008C147093AC026093AB02F4016081718182
:1015B00080912601909127010E9434020F900F9094
:1015C0000F900F90882321F08091B802833038F17A
:1015D000C853DD4F8881998190932701809326011C
:1015E00028C082E00E94FE0180911C0190911D01A3
:1015F0000E94E901DDCE82E00E94FE018091A902F5
:101600009091AA020E94E9011ECF82E00E94FE0191
:101610008091AB029091AC020E94E90171CF82E00F
:101620000E94FE018091AB029091AC020E94E90100
:10163000CFCFDF91CF911F910F91FF90EF90DF906F
:10164000CF90BF90AF909F908F907F906F900895B4
:1016500084E090E00E94550282E090E00E94BF0288
:1016600065E070E086E090E00E94290381E090E070
:101670000E946C0463E070E080E090E00C948009CC
:1016800064E070E082E090E00E94F30463E070E0C8
:1016900080E090E00E94800965E070E086E090E0E4
:1016A0000E94B20581E090E00C946C044F925F922E
:1016B0006F927F92AF92BF92CF92DF92EF92FF92A2
:1016C0000F931F93CF936091B4027091B5028091F4
:1016D000B6029091B7026115710581059105D1F1AE
:1016E000A090A902B090AA020B2C000CCC08DD0837
:1016F0002091AB023091AC022901330F66087708C4
:101700007F926F925F924F9218EBE12E1BE0F12EC9
:1017100000E010E02EE531E040E050E00E948C1443
:10172000C62F0F900F900F900F9080910201C81755
:1017300089F08C2F90E00E94E90181E00E94FE0177
:10174000209116014C2F67E088ED92E00E94760907
:10175000C0930201CF911F910F91FF90EF90DF9006
:10176000CF90BF90AF907F906F905F904F90089513
:101770004F925F926F927F92AF92BF92CF92DF9221
:10178000EF92FF920F931F93CF936091B4027091E9
:10179000B5028091B6029091B7026115710581057D
:1017A0009105D1F1A090A902B090AA020B2C000CD7
:1017B000CC08DD082091AB023091AC022901330F37
:1017C000660877087F926F925F924F9218EBE12E36
:1017D0001BE0F12E00E010E02EE531E040E050E0AB
:1017E0000E948C14C62F0F900F900F900F90809135
:1017F0001902C81789F08C2F90E00E94E90181E05E
:101800000E94FE01209116014C2F61E088ED92E0CC
:101810000E947609C0931902CF911F910F91FF90FA
:10182000EF90DF90CF90BF90AF907F906F905F90E0
:101830004F9008954F925F926F927F92AF92BF92B6
:10184000CF92DF92EF92FF920F931F936091B402B9
:101850007091B5028091B6029091B7026115710541
:101860008105910509F462C0A090A902B090AA0276
:101870000B2C000CCC08DD082091AB023091AC029F
:101880002901330F660877087F926F925F924F921B
:1018900018EBE12E1BE0F12E00E010E02EE531E028
:1018A00040E050E00E948C146093A2020F900F90D1
:1018B0000F900F90809118026817C1F1862F90E069
:1018C0000E94E90181E00E94FE01209116014091F1
:1018D000A20265E088ED92E00E9476098091A20262
:1018E00081110DC02091160140E061E488ED92E085
:1018F0000E9476098091A30281111092A302809127
:10190000A30281110FC08091A202882359F0209177
:1019100016014FE761E488ED92E00E94760981E0CC
:101920008093A3028091A202809318021F910F91CD
:10193000FF90EF90DF90CF90BF90AF907F906F902F
:101940005F904F9008954F925F926F927F92AF9207
:10195000BF92CF92DF92EF92FF920F931F93CF939C
:101960006091B4027091B5028091B6029091B70275
:10197000611571058105910509F43FC0A090A90288
:10198000B090AA020B2C000CCC08DD082091AB0211
:101990003091AC022901330F660877087F926F926D
:1019A0005F924F9218EBE12E1BE0F12E00E010E069
:1019B0002EE531E040E050E00E948C14C62F0F90DD
:1019C0000F900F900F9080910101C81759F08091EE
:1019D000B802811107C08C2F90E00E94E90180E0DD
:1019E0000E94FE01209116014C2F6091220188ED8A
:1019F00092E00E947609C0930101CF911F910F914F
:101A0000FF90EF90DF90CF90BF90AF907F906F905E
:101A10005F904F9008954F925F926F927F92AF9236
:101A2000BF92CF92DF92EF92FF920F931F93CF93CB
:101A30008091B802833008F07DC06091B00270914F
:101A4000B1028091B2029091B302611571058105D6
:101A5000910509F46FC0A090A502B090A6020B2CCE
:101A6000000CCC08DD082091A7023091A8022901C2
:101A7000330F660877087F926F925F924F9218EB50
:101A8000E12E1BE0F12E00E010E02EE531E040E019
:101A900050E00E948C14C62F0F900F900F900F9063
:101AA00080910001C81759F08091B802811107C0D8
:101AB0008C2F90E00E94E90180E00E94FE012091BD
:101AC00016014C2F6091200188ED92E00E9476096A
:101AD000C09300018091B4029091B502A091B6022A
:101AE000B091B702892B8A2B8B2B21F18091B00208
:101AF0009091B102A091B202B091B302892B8A2BCE
:101B00008B2BC1F088EC90E09093310180933001F1
:101B100080E38093C7028FE28093C60281E38093C3
:101B2000C50281E00E94FE0180E293E090933101C2
:101B300080933001CF911F910F91FF90EF90DF9034
:101B4000CF90BF90AF907F906F905F904F9008952F
:101B50000F9326E042E15AE760E070E08CE993E001
:101B60000E946D1361E087E00E94BF1160E088E091
:101B70000E94BF1161E085E00E94BF1160E086E035
:101B80000E94BF1161E084E00E94BF1161E083E028
:101B90000E94BF1161E082E00E94BF1160E083E11A
:101BA0000E94BF1161E08EE00E94BF1161E08FE0F2
:101BB0000E94BF1161E089E00E94BF1161E082E1F3
:101BC0000E94BF1161E081E10E94BF1161E080E1EC
:101BD0000E94BF1160EF70E08091FC029091FD02C5
:101BE0000E94D7008091FC029091FD02DC01ED91F2
:101BF000FC910190F081E02D60E009958091FC025C
:101C00009091FD02DC01ED91FC910190F081E02DBD
:101C100060E0099567EF70E08091FC029091FD0211
:101C20000E94D7000091160120E041E560EC70E0D1
:101C300088ED92E00E94FE080E94DE000E94BB0830
:101C400080911F01882371F08DE28093C7028EE29C
:101C50008093C60281E08093C50288EE93E00E94E3
:101C60009A0102C00E94910882E00F910C94FE013B
:101C7000AF92BF92CF92DF92EF92FF920F931F939A
:101C8000CF93DF938091A2028823A1F01092A30248
:101C90001092A2022091160140E065E088ED92E0EA
:101CA0000E9476092091160140E061E488ED92E0FF
:101CB0000E9476096091B4027091B5028091B602DB
:101CC0009091B70220911A0130911B01032E000C54
:101CD000440B550B261737074807590788F4EFEFD1
:101CE000EF93EF93ECEFEF93E1E0EF93A12CB12CA6
:101CF000650118EBE12E1BE0F12E00E010E01BC0A7
:101D0000E0901801F09019010F2C000C000B110B42
:101D10006E157F0580079107B0F41F921F921F92E6
:101D20001F92AA24AA9443E0B42EC12CD12C2EE5F4
:101D300031E040E050E00E948C14EB010F900F90D6
:101D40000F900F9002C0C0E0D0E08091B40290915B
:101D5000B502A091B602B091B702892B8A2B8B2BCA
:101D600011F580911C02803118F48F5F80931C0262
:101D700080911C028F3009F0A9C08DE18093C502CB
:101D800086E18093C6028093C70281E00E94FE0133
:101D90000091160120E440E060EE70E088ED92E0F2
:101DA0000E94FE0893C080911A0290911B02C817EE
:101DB000D90709F48BC01C161D0644F5BE01C115D8
:101DC00084E0D80714F06FEF73E0072E000C880B47
:101DD000990B1F921F921F922DE12F9332E2A32E97
:101DE000B12CC12CD12CE12CF12C87012FEF33E049
:101DF00040E050E00E948C140F900F900F900F90D5
:101E0000CF3F83E0D80799F56F5F31C0209791F1FC
:101E1000C1308CEFD8075CF0BE011C161D0614F40F
:101E200060E070E0072E000C880B990B04C061E0A5
:101E30007CEF8FEF9FEF1F921F921F922DE12F9348
:101E400028E1A22EB12CC12CD12CE12CF12C870140
:101E500021E03CEF4FEF5FEF0E948C140F900F904A
:101E60000F900F90C1308CEFD80709F46150609348
:101E7000030103C08DE180930301809103018093EE
:101E8000C50286E18093C6028093C70281E00E946A
:101E9000FE01D0931B02C0931A0283E0CC0FDD1F1A
:101EA0008A95E1F7AE01505E9A01220F232F221F7F
:101EB000330B31952F774F770091160160EE70E06C
:101EC00088ED92E00E94FE0810921C02DF91CF91F3
:101ED0001F910F91FF90EF90DF90CF90BF90AF9048
:101EE00008958091B8028230E0F48091AD02833091
:101EF00081F028F4813049F0823049F0089585302E
:101F000061F048F0863059F008950C94380E0C9426
:101F1000B80B0C94ED070C94560B0C941A0C0C9403
:101F2000A30C0895CF93C0911E01CC2351F10E94C0
:101F3000C3068AE090E00E949A010E94B5080E94C0
:101F40006F076093B4027093B5028093B6029093CA
:101F5000B7020E94710F8091A402882381F00E9431
:101F600089080E94AE076093B0027093B10280931B
:101F7000B2029093B3020E940B0D0E94400BC1501D
:101F8000D4CFCF9108954F925F926F927F92AF928C
:101F9000BF92CF92DF92EF92FF920F931F932B018C
:101FA0003C01672B682B692B09F58091170286305D
:101FB00018F48F5F8093170280911702863008F41F
:101FC0008FC080911602882309F48AC000911601FF
:101FD00020E04091150260E970E088ED92E00E94F7
:101FE000FE0810921702109216027AC01092170281
:101FF0000E9427116093C1027093C2028093C302B2
:102000009093C402DC01CB01805A9541AF4FBF4F82
:102010008093B9029093BA02A093BB02B093BC0222
:1020200080912F0190E00196092E000CAA0BBB0BAA
:10203000BF93AF939F938F93A12CB12C650118EBA5
:10204000E12E1BE0F12E00E010E02EE531E040E053
:1020500050E0C301B2010E948C1480912F010F90B7
:102060000F900F900F90861708F4682FE62FF0E07E
:10207000EB5CFD4F808180931402909116029111C8
:102080000FC091E090931602009116012091170164
:10209000482F60E970E088ED92E00E94FE081CC0C5
:1020A000409115028417E1F00091160120E060E9EB
:1020B00070E088ED92E00E94FE08009116012091E8
:1020C00017014091140260E970E088ED92E00E94EF
:1020D000FE0881E08093160280911402809315021D
:1020E0001F910F91FF90EF90DF90CF90BF90AF9036
:1020F0007F906F905F904F9008950E94DE000E9445
:1021000089068091A402811106C00E94280B0E94BA
:1021100089080C94C30F08950E947D100C94920FAF
:10212000CF93DF93E8EDF2E08CE993E095A384A3ED
:1021300016A217A210A615A614A617A616A68FEF0C
:102140009FEF91AB80AB93AB82AB83E080930C03AA
:1021500015AA17AA16AA10AE11AE1092920380E823
:10216000A2E1B3E0ED0119928A95E9F7118210829C
:1021700013821282158214821782168211861086AB
:10218000138612861586148617861686118A108A7B
:10219000138A128A158A148A178A168A118E108E4B
:1021A000138E128E158E148E178E168E11A210A2FB
:1021B00013A212A2DF91CF9108951F920F920FB632
:1021C0000F9211242F933F938F939F93AF93BF93BD
:1021D0008091940390919503A0919603B0919703F9
:1021E0003091930323E0230F2D3720F40196A11D96
:1021F000B11D05C026E8230F0296A11DB11D209335
:1022000093038093940390939503A0939603B093C4
:1022100097038091980390919903A0919A03B091AC
:102220009B030196A11DB11D809398039093990380
:10223000A0939A03B0939B03BF91AF919F918F910D
:102240003F912F910F900FBE0F901F9018952FB7B1
:10225000F894609194037091950380919603909106
:1022600097032FBF08958230910538F0880F991F8A
:10227000880F991F05970197F1F70895789484B511
:10228000826084BD84B5816084BD85B5826085BD72
:1022900085B5816085BDEEE6F0E080818160808358
:1022A000E1E8F0E01082808182608083808181603B
:1022B0008083E0E8F0E0808181608083E1EBF0E002
:1022C000808184608083E0EBF0E0808181608083A6
:1022D000EAE7F0E08081846080838081826080838F
:1022E0008081816080838081806880831092C100BA
:1022F00008958E3008F08E5087702091320190E45E
:10230000299F90011124822B80937C0080917A0078
:10231000806480937A0080917A0086FDFCCF809162
:1023200078002091790090E0922B0895833081F01D
:1023300028F4813099F08230A1F008958730A9F017
:102340008830B9F08430D1F4809180008F7D03C053
:10235000809180008F7780938000089584B58F7777
:1023600002C084B58F7D84BD08958091B0008F77C1
:1023700003C08091B0008F7D8093B0000895CF930B
:10238000DF9390E0FC01E158FF4F2491FC01EA56F5
:10239000FF4F8491882361F190E0880F991FFC0121
:1023A000EF53FF4FC591D491FC01E954FF4FA59124
:1023B000B491611109C09FB7F89488812095822358
:1023C0008883EC912E230BC0623061F49FB7F894A0
:1023D0003881822F809583238883EC912E2B2C9338
:1023E0009FBF06C08FB7F894E8812E2B28838FBF3C
:1023F000DF91CF9108951F93CF93DF93282F30E083
:10240000F901E859FF4F8491F901E158FF4FD49148
:10241000F901EA56FF4FC491CC23C9F0162F811160
:102420000E949611EC2FF0E0EE0FFF1FE954FF4FD2
:10243000A591B4918FB7F894111105C09C91ED2F1F
:10244000E095E92302C0EC91ED2BEC938FBFDF9177
:10245000CF911F9108950F931F9390E0FC01E158D5
:10246000FF4F7491FC01EA56FF4FE491662311F08F
:10247000672F01C060E0F0E0EE0FFF1FE355FF4F54
:102480008591949189019A013F70462F672F0E9490
:102490009200611571058105910549F0DC01CB01C0
:1024A0000196A11DB11DBC01CD019F7003C060E06C
:1024B00070E0CB011F910F910895BF92CF92DF92F0
:1024C000EF92FF920F931F93CF93DF93C82ED62ED8
:1024D000B42EC7E0D0E0022F10E087E0E82EF12C08
:1024E000B11005C0C7018C1B9D0B980102C098015B
:1024F0008C2F02C0359527958A95E2F7B901617056
:1025000077278C2D0E94FB1161E08D2D0E94FB111D
:1025100060E08D2D0E94FB11219710F7DF91CF9184
:102520001F910F91FF90EF90DF90CF90BF90089593
:10253000FC01918D228D892F90E0805C9F4F821B42
:1025400091098F7399270895FC01918D828D9817B9
:1025500031F0828DE80FF11D858D90E008958FEFA9
:102560009FEF0895FC01918D828D981761F0828D07
:10257000DF01A80FB11D5D968C91928D9F5F9F73B7
:10258000928F90E008958FEF9FEF0895FC01538D97
:10259000448D252F30E0842F90E0821B930B54173D
:1025A00010F0CF960895019708958AE294E1892B5F
:1025B00049F080E090E0892B29F00E942A148111D3
:1025C0000C9400000895FC01848DDF01A80FB11D5B
:1025D000A35ABF4F2C91848D90E001968F73992759
:1025E000848FA689B7892C93A089B1898C91806446
:1025F0008C93938D848D981306C00288F389E02D07
:1026000080818F7D80830895CF93DF93EC01888D47
:102610008823C9F0EA89FB89808185FD05C0A889E6
:10262000B9898C9186FD0FC00FB607FCF5CF80816C
:1026300085FFF2CFA889B9898C9185FFEDCFCE01B6
:102640000E94E312E7CFDF91CF910895EF92FF92BE
:102650000F931F93CF93DF93EC0181E0888F9B8DC5
:102660008C8D981305C0E889F989808185FD24C087
:10267000F62E0B8D10E00F5F1F4F0F731127E02E0A
:102680008C8DE8120CC00FB607FCFACFE889F989E7
:10269000808185FFF5CFCE010E94E312F1CF8B8DB3
:1026A000FE01E80FF11DE35AFF4FF0820B8FEA891C
:1026B000FB898081806207C0EE89FF896083E88999
:1026C000F98980818064808381E090E0DF91CF91FF
:1026D0001F910F91FF90EF900895CF92DF92EF92AC
:1026E000FF921F93CF93DF93EC016A017B01122FBE
:1026F000E889F98982E080834115514E61057105B1
:10270000B1F060E079E08DE390E0A70196010E94CE
:102710000115DA01C9010197A109B109B695A7957B
:1027200097958795AC01411580E15807A8F0E88995
:10273000F989108260E874E88EE190E0A7019601C3
:102740000E940115BA01A90141505109610971099D
:102750007695679557954795EC85FD855083EE8571
:10276000FF854083188EEC89FD891083EA89FB89F7
:10277000808180618083EA89FB8980818860808391
:10278000EA89FB89808180688083EA89FB8980816E
:102790008F7D8083DF91CF911F91FF90EF90DF902D
:1027A000CF9008951F920F920FB60F9211242F937E
:1027B0008F939F93EF93FF93E091AC03F091AD0360
:1027C0008081E091B203F091B30382FD12C0908149
:1027D0008091B5038F5F8F732091B603821751F0FC
:1027E000E091B503F0E0E456FC4F958F8093B5037C
:1027F00001C08081FF91EF919F918F912F910F9058
:102800000FBE0F901F9018951F920F920FB60F9248
:1028100011242F933F934F935F936F937F938F93E5
:102820009F93AF93BF93EF93FF938CE993E00E9444
:10283000E312FF91EF91BF91AF919F918F917F91A3
:102840006F915F914F913F912F910F900FBE0F901D
:102850001F9018958CE993E00E94981221E0892B33
:1028600009F420E0822F0895ECE9F3E0138212824C
:1028700088EE93E0A0E0B0E084839583A683B783DD
:1028800085E092E09183808385EC90E09587848752
:1028900084EC90E09787868780EC90E0918B808B2A
:1028A00081EC90E0938B828B82EC90E0958B848B13
:1028B00086EC90E0978B868B118E128E138E148E81
:1028C0000895CF92DF92EF92FF920F931F93CF93D1
:1028D000DF936C017A018B01C0E0D0E0CE15DF05FB
:1028E00089F0D8016D918D01D601ED91FC91019097
:1028F000F081E02DC6010995892B11F47E0102C0FB
:102900002196ECCFC701DF91CF911F910F91FF90DE
:10291000EF90DF90CF9008954F925F926F927F92E9
:10292000AF92BF92CF92DF92EF92FF920F931F93DD
:10293000CF93DF93CDB7DEB729013A019B01AC01FC
:10294000241935094609570989899A89AB89BC89AF
:10295000BC01CD016A197B098C099D090E94DD1417
:10296000A801970124193509460957090E94231522
:10297000CA01B9016A0D7B1D8C1D9D1DDF91CF9190
:102980001F910F91FF90EF90DF90CF90BF90AF908D
:102990007F906F905F904F90089508950E943E1130
:1029A0000E94CD140E94A80DC5EDD2E10E948C10AA
:1029B0002097E1F30E94D512F9CFDB018F939F930B
:1029C0000E944215BF91AF91A29F800D911DA39FC0
:1029D000900DB29F900D1124089597FB072E16F4C9
:1029E000009407D077FD09D00E944D1507FC05D053
:1029F0003EF4909581959F4F0895709561957F4F16
:102A00000895A1E21A2EAA1BBB1BFD010DC0AA1F2F
:102A1000BB1FEE1FFF1FA217B307E407F50720F047
:102A2000A21BB30BE40BF50B661F771F881F991FC2
:102A30001A9469F760957095809590959B01AC010B
:102A4000BD01CF010895052E97FB1EF400940E944E
:102A50003A1557FD07D00E94011507FC03D04EF42C
:102A60000C943A1550954095309521953F4F4F4F16
:102A70005F4F089590958095709561957F4F8F4F2A
:102A80009F4F08950E946715A59F900DB49F900DCC
:102A9000A49F800D911D11240895AA1BBB1B51E119
:102AA00007C0AA1FBB1FA617B70710F0A61BB70BBE
:102AB000881F991F5A95A9F780959095BC01CD0163
:102AC0000895EE0FFF1F0590F491E02D0994A29F49
:102AD000B001B39FC001A39F700D811D1124911DF2
:102AE000B29F700D811D1124911D0895F894FFCFA0
:102AF000FFFF7F1DFFFFFFFFF5FF01000100FFFF4C
:102B0000FFFFFFFFFFFF017FA406A4060A000101EB
:102B100056005500FFFFFFFF010200040005000FF3
:102B2000D0070102020102020201000000000007BA
:102B3000020102020201020000000000070102027D
:102B4000020102020000000000070202020102026C
:102B50000100000000000702020102020102000061
:102B60000000000702010202010202000000000052
:102B70000701020201020202000000000007020138
:102B80000202010301000000000007020203020329
:102B90000000000000000005030202030200000024
:102BA0000000000005020202020202000000000014
:102BB00000060101010101010101010101010CAF48
:102BC000289BBA3CB6B72ABFBE87C7B9F997175733
:102BD000B7F73F7FB500EFAFAEAAA8A08081858789
:102BE0008FAFEFFEFDFBF7EFDFBF7FFFDB68101558
:102BF000380000000026136114C61204139812B2A4
:042C000012A4120008
:00000001FF
